:1000000045C0000060C000005EC000005CC0000091
:100010005AC0000058C0000057C0000069C000006E
:1000200052C0000050C000004EC000004CC0000094
:100030004AC0000048C0000046C0000044C00000A4
:1000400042C0000040C000003EC000003CC00000B4
:100050003AC0000038C0000036C0000034C00000C4
:1000600032C0000030C000002EC000002CC00000D4
:100070002AC0000028C0000026C0000024C00000E4
:1000800022C0000020C000001EC0000011241FBEBE
:10009000CFEFD0E1DEBFCDBF11E0A0E0B1E0E8EAF4
:1000A000F2E000E00BBF02C007900D92A431B1074F
:1000B000D9F721E0A4E1B1E001C01D92A631B20759
:1000C000E1F724D0EFC09CCF1F920F920FB60F9292
:1000D00011248F939F9381E090E09093150180937A
:1000E00014019F918F910F900FBE0F901F90189544
:1000F0001F920F920FB60F921124109215011092B9
:1001000014010F900FBE0F901F901895EF92FF9261
:100110000F931F93CF93DF93CDB7DEB764970FB6DE
:10012000F894DEBF0FBECDBF8FEF8ABB80E181BBED
:1001300012B884E1E0E0F1E0DE01119601900D9249
:100140008A95E1F780E689BF8CE38ABF78942FE037
:1001500037E270C0C90168EE73E07DD040E141BB79
:10016000660F771FE1E0F0E0EC0FFD1FE60FF71FD1
:1001700040814BBBE2E4F7E03197F1F70F2EF4E654
:10018000EF2EF12CF02DB70166D080E281BBFB0190
:10019000EE0FFF1F81E090E08C0F9D1FE80FF91F0D
:1001A00080818BBBE2E4F7E03197F1F7C901B70139
:1001B00052D00F2EFAE0EF2EF12CF02DB7014BD0DC
:1001C00080E481BBFB01EE0FFF1F81E090E08C0F0C
:1001D0009D1FE80FF91F808180688BBBE2E4F7E088
:1001E0003197F1F7C901B70136D040E841BBFC01B6
:1001F000EE0FFF1F81E090E08C0F9D1FE80FF91FAD
:1002000080818BBBE2E4F7E03197F1F701501109EF
:1002100002C009E110E0101611060CF49BCF80918A
:10022000140190911501892B19F42150310902C054
:100230002FE037E233236CF780E090E064960FB64E
:10024000F894DEBF0FBECDBFDF91CF911F910F910C
:10025000FF90EF90089597FB072E16F4009406D0B8
:1002600077FD08D00BD007FC05D03EF49095819522
:100270009F4F0895709561957F4F0895AA1BBB1BF2
:1002800051E107C0AA1FBB1FA617B70710F0A61B96
:10029000B70B881F991F5A95A9F780959095BC01B7
:0802A000CD010895F894FFCF91
:1002A8003F0006005B004F0066006D007D00070000
:0402B8007F006F0054
:00000001FF
