:1000000045C0000060C000005EC000005CC0000091
:100010005AC0000022C1000056C0000054C00000B9
:1000200052C0000050C000004EC000004CC0000094
:100030004AC0000048C0000046C0000044C00000A4
:1000400042C0000040C000003EC000003CC00000B4
:100050003AC0000038C0000036C0000034C00000C4
:1000600032C0000030C000002EC000002CC00000D4
:100070002AC0000028C0000026C0000024C00000E4
:1000800022C0000020C000001EC0000011241FBEBE
:10009000CFEFD0E1DEBFCDBF11E0A0E0B1E0E4EEF4
:1000A000F7E000E00BBF02C007900D92A837B10740
:1000B000D9F721E0A8E7B1E001C01D92AA37B20745
:1000C000E1F786D28DC39CCF88EF84BB87E085BBE8
:1000D000089588E085BB83E397E00197F1F783B348
:1000E0008770813009F45DC083B38770823009F472
:1000F0005AC083B38770843009F457C08FEF97E4F8
:100100000197F1F700C0000080E185BB83E397E031
:100110000197F1F783B38770813009F448C083B346
:100120008770823009F445C083B38770843009F446
:1001300042C08FEF97E40197F1F700C0000080E222
:1001400085BB83E397E00197F1F783B38770813034
:10015000A1F183B38770823091F183B387708430CB
:1001600081F18FEF97E40197F1F700C0000080E480
:1001700085BB83E397E00197F1F783B38770813004
:1001800011F183B38770823001F183B387708430BB
:10019000F1F08FEF97E40197F1F700C0000080E0E5
:1001A000089581E3089582E3089583E3089584E345
:1001B000089585E3089586E3089587E3089588E325
:1001C000089589E308958AE2089580E3089583E21B
:1001D0000895DC0120E030E00CC0FD01E20FF31FC8
:1001E0004081FB01E20FF31F9081491307C02F5F8D
:1001F0003F4F243031058CF381E0089580E008956D
:10020000CF93DF93EC0170D260E080E05FD2CE014B
:1002100051D2DF91CF910895880F991FFC01E85CBE
:10022000FE4F2081318140E050E060E078E087E0DF
:1002300090E08DD23093810020938000EBE8F0E0D5
:1002400080E480832FEF8FE593E021508040904041
:10025000E1F700C00000108208951F920F920FB6C0
:100260000F9211240BB60F922F933F934F935F93EE
:100270006F937F938F939F93AF93BF93EF93FF936E
:10028000F89480913701882319F01092370106C045
:10029000811104C081E08093370116DF2FEF8FE1D9
:1002A00091E0215080409040E1F700C000001092A2
:1002B00079011092780180E090E0AEDF7894FF91B0
:1002C000EF91BF91AF919F918F917F916F915F91CE
:1002D0004F913F912F910F900BBE0F900FBE0F903B
:1002E0001F9018955D9BFECF8CB98BB180628BB946
:1002F00008955F9BFECF8CB19BB190689BB9089528
:100300000F931F93CF93DF938C01C0E0D0E002C026
:100310002196E8DFF801EC0FFD1F80818111F8CFF5
:10032000DF91CF911F910F9108950F931F93CF935A
:10033000DF93CDB7DEB727970FB6F894DEBF0FBEB9
:10034000CDBFC7DE182F811104C085E091E058DFD2
:10035000AEC0E0917801F091790181E090E08C0FDE
:100360009D1FE80FF91F1083AFDE62E571E085E0A5
:1003700091E02FDF811109C08DE0E2E5F1E0A5E019
:10038000B1E001900D928A95E1F71E831F82BE01B4
:100390006A5F7F4F85E091E018D284E090E03CDF17
:1003A00080917801909179010196909379018093E1
:1003B000780104970CF472C01092790110927801C0
:1003C00060E071E0CE01019604DF882309F444C0A7
:1003D0009FEFEFE9F5E09150E040F040E1F700C019
:1003E00000008AE0E1E6F1E0A5E0B1E001900D92C5
:1003F0008A95E1F703E010E004C0C8010DDF0F5F4C
:100400001F4F06301105CCF380E090E021C020E3BF
:1004100022BBEFEFF7E43197F1F700C0000020E9CD
:1004200022BBEFEFF7E43197F1F700C0000020ECBA
:1004300022BBEFEFF7E43197F1F700C0000020E6B0
:1004400022BBEFEFF7E43197F1F700C0000001960F
:100450008C309105E4F222C088E0E8E4F1E0A5E008
:10046000B1E001900D928A95E1F700E010E005C03F
:1004700080E090E0D1DE0F5F1F4F05301105C4F31F
:1004800080E090E008C0E1E0F0E0EC0FFD1FE80F35
:10049000F91F1082019685309105ACF3FFEF2FE133
:1004A00081E0F15020408040E1F700C00000279635
:1004B0000FB6F894DEBF0FBECDBFDF91CF911F9175
:1004C0000F9108950F931F93CF93DF9300D000D027
:1004D0001F92CDB7DEB780E591E012DF13C009DFD0
:1004E000182F00DF8091780190917901E1E0F0E030
:1004F000EC0FFD1FE80FF91F10830196909379010F
:1005000080937801809178019091790104973CF370
:100510001092790110927801BE016F5F7F4F80E0E9
:1005200091E057DE8823A9F18FE591E0E9DE03E051
:1005300010E004C0C80170DE0F5F1F4F06301105C8
:10054000CCF380E090E021C020E322BBEFEFF7E4A2
:100550003197F1F700C0000020E922BBEFEFF7E48C
:100560003197F1F700C0000020EC22BBEFEFF7E479
:100570003197F1F700C0000020E622BBEFEFF7E46F
:100580003197F1F700C0000001968C309105E4F23C
:1005900015C08BE691E0B4DE00E010E005C080E01D
:1005A00090E03ADE0F5F1F4F05301105C4F380E085
:1005B00090E001C0019685309105E4F30F900F9013
:1005C0000F900F900F90DF91CF911F910F91089591
:1005D00094D02FEF8FE796E1215080409040E1F7D3
:1005E00000C0000081D08FEF8ABB8FE08093640051
:1005F0006BDD88E282B989E180938A0010928C00D9
:10060000109289001092880080EF81BB83B18F7DAA
:1006100083B982E08ABF80E189BF88BF78941BB824
:1006200088E18AB986E0809395001092900083E07B
:1006300089B94ADD80913701882311F076DEFACF3F
:1006400041DFF8CFE5E6F0E0908191609083908102
:100650009D7F908390819460908390E19A95F1F7CB
:1006600000C08BBB80E18A95F1F700C080818B7F51
:1006700080830895E5E6F0E090819E7F90839081ED
:100680009D7F908390819460908390E19A95F1F79B
:1006900000C08BBB80E18A95F1F700C080818B7F21
:1006A00080830895CFDF89EF90E00197F1F700C0D4
:1006B00000000895CF93DF93EC0102C0F3DF219691
:1006C00088818111FBCFDF91CF91089590E4899FBC
:1006D000600D1124862F8068CDDF81EE94E00197B4
:1006E000F1F700C00000089581E0C4DF83EC99E0D9
:1006F0000197F1F700C00000089588E3BBDF83EFA6
:1007000091E00197F1F700C0000088E3B3DF83EFC9
:1007100091E00197F1F700C0000088E3ABDF83EFC1
:1007200091E00197F1F700C000008CE0A3DF83EFB8
:1007300091E00197F1F700C0000086E09BDF83EFB6
:1007400091E00197F1F700C00000CECF0895052E8B
:1007500097FB16F400940FD057FD05D014D007FC7A
:1007600002D046F408C050954095309521953F4FF2
:100770004F4F5F4F089590958095709561957F4F8D
:100780008F4F9F4F0895A1E21A2EAA1BBB1BFD019C
:100790000DC0AA1FBB1FEE1FFF1FA217B307E40760
:1007A000F50720F0A21BB30BE40BF50B661F771FB8
:1007B000881F991F1A9469F7609570958095909598
:1007C0009B01AC01BD01CF010895FB01DC010D903F
:1007D0000020E9F7119701900D920020E1F70895AC
:0407E000F894FFCFBB
:1007E4003131323200496E73657274205057203AA9
:1007F40020000000000000000000000000000000D5
:1008040000000000000000000000000000000000E4
:1008140000000000000000010B024B029302BA0228
:100824000F037003DB0316045265747279212100EF
:100834000A0D496E73657274205057203A20000DDA
:100844000A4F50454E20444F4F52000A0D547279BE
:0808540020416761696E00009C
:00000001FF
