S017000074696D6572436F756E7431366269742E737265633D
S113000045C0000060C000005EC000005CC000008D
S11300105AC0000058C0000056C0000054C0000080
S113002052C0000050C000004EC000004CC0000090
S11300304AC0000048C0000046C0000044C00000A0
S113004042C0000040C000003EC000003CC00000B0
S11300503AC0000038C0000036C0000034C00000C0
S113006032C0000031C000002EC000002CC00000CF
S11300702AC0000028C0000026C0000024C00000E0
S113008022C0000020C000001EC0000011241FBEBA
S1130090CFEFD0E1DEBFCDBF11E0A0E0B1E0E2ECF4
S11300A0F1E000E00BBF02C007900D92A231B1074E
S11300B0D9F721E0A2E1B1E001C01D92A531B20758
S11300C0E1F740D07CC09CCF1F920F920FB60F92E5
S11300D011245F936F937F938F939F93AF93BF93F9
S11300E0F8948091120181110FC085E080938A00F9
S11300F01092890010928800109281001092800062
S113010081E08093120111C085E480938A0080917C
S113011080009091810060E27CE13DD06093140105
S113012081E080931301109212017894BF91AF91F2
S11301309F918F917F916F915F910F900FBE0F9060
S11301401F9018958FEF8ABB12B810928B0085E42C
S113015080938A0080E280937D00ECE7F0E0808168
S1130160806280837894809100018BBB809113011D
S11301708823E1F380911401803118F08FE080939B
S11301801401E0911401F0E0E050FF4F80818BBB3B
S113019010921301EBCFAA1BBB1B51E107C0AA1F8E
S11301A0BB1FA617B70710F0A61BB70B881F991F14
S11301B05A95A9F780959095BC01CD010895F894BE
S10501C0FFCF6B
S11301C23F065B4F666D7D277F6F777C395E797161
S10501D208809F
S9030000FC
